:020000040800F2
:1000000028130020850200088D0200087D270008C3
:100010009102000893020008950200080000000009
:10002000000000000000000000000000970200082F
:1000300099020008000000009B0200089D020008D1
:100040009F0200089F0200089F0200089F0200080C
:100050009F0200089F0200089F0200089F020008FC
:100060009F0200082D2200089F0200089F0200083E
:100070009F0200089F0200089F0200089F020008DC
:100080009F0200089F0200089F020008D91800087C
:10009000951800089F0200089F0200089F020008B0
:1000A0009F0200089F0200089F0200089F020008AC
:1000B0005D33000821340008393400089F0200082D
:1000C0009F0200089F0200089F0200089F0200088C
:1000D0009F020008853B0008753F0008714000083A
:1000E0009F0200089F0200089F0200089F0200086C
:1000F0009F0200089F0200089F0200089F0200085C
:100100009F0200089F0200089F0200089F0200084B
:100110006D3A0008AD3A00089F0200089F020008EF
:100120009F0200089F0200089F0200089F0200082B
:100130009F0200089F0200089F0200083D1A000865
:100140000D1A00089F0200089F0200089F02000885
:100150009F0200089F0200089F0200089F020008FB
:100160009F0200089F0200089F0200089F020008EB
:100170009F0200089F0200089F0200089F020008DB
:100180009F0200089F02000800F002F800F06AF8E1
:100190000AA090E8000C82448344AAF10107DA45E2
:1001A00001D100F05FF8AFF2090EBAE80F0013F0CA
:1001B000010F18BFFB1A43F001031847305B000022
:1001C000505B00000A444FF0000C10F8013B13F0A4
:1001D000070408BF10F8014B1D1108BF10F8015BA0
:1001E000641E05D010F8016B641E01F8016BF9D193
:1001F00013F0080F1EBF10F8014BAD1C0C1B09D1EA
:100200006D1E58BF01F801CBFAD505E014F8016B5B
:1002100001F8016B6D1EF9D59142D6D370470000ED
:100220000023002400250026103A28BF78C1FBD8FF
:10023000520728BF30C148BF0B6070471FB505F09B
:1002400082FC00F09FF804000020002104F098FFD9
:10025000401C60600020002104F07CFFE0601FBDB6
:1002600010B510BD00F032F91146FFF7E7FF04F0BA
:1002700057FC00F0ABFB03B4FFF7F2FF03BC04F044
:1002800040FA00000948804709480047FEE7FEE7BA
:10029000FEE7FEE7FEE7FEE7FEE7FEE7FEE7FEE736
:1002A00004480549054A064B70470000012E000826
:1002B00089010008280D002028130020280F0020A5
:1002C000280F00207047704770477047704710B57F
:1002D00000F05CF8006810BD10B5044600F056F858
:1002E000046010BD0FB4002300B589B00CA90091C3
:1002F0000B99CB60204B7B440693204B7B440793A8
:1003000004236FF00042CDE901321D4A7A446B4666
:1003100008920246002005F080FC09B05DF814FB4D
:1003200070B506464FF0FF3015460C46324686B093
:100330000091CDE9010169460020049004A8FFF76F
:10034000D1FF03460498211825B108B10A4600E000
:1003500022462A6000280DD0002B02DD009888423A
:1003600008D03246081B69460094CDE9010404A870
:10037000FFF7B8FF06B070BDAD000000C50000007B
:100380008500000000487047E40C002000487047DA
:10039000C40C002010B5044600F0BEF80068005DF3
:1003A00000F0010010BD426842B1016811F8013B44
:1003B00023B1521EC0E90012184670470121C160E6
:1003C000881E704742685AB1C368016843B98368A0
:1003D0008B4205D0491E521CC0E900120020704714
:1003E0004FF0FF30704700002DE9F0478146164678
:1003F0008AB0334878440DC88DE80D003048784401
:10040000801C03AC0DC884E80D0041F69B30084405
:10041000372190FBF1F290FBF1F5A5F1800501FB8E
:1004200012041B3C02D56442012000E00020DFF8EA
:1004300090A080460027FA44AAF1BE0A0DE0E0072A
:1004400009D03246684607EB47010AEB810100F00C
:100450009CFF8DE8070064107F1C002CEFD1184F23
:100460007F44AC3F18E0E80714D007EB04100DF10F
:10047000180A90E80E008AE80E00C068F04201D128
:1004800098190890324606A903A800F07EFF03AB36
:1004900083E807006D10641C002DE4D132466946E4
:1004A000B8F1000F03A802D000F047FF01E000F010
:1004B0006CFFC9E90001C9F808200AB0BDE8F0875F
:1004C000DC58000000487047C40C00207546FFF758
:1004D000F9FFAE4605006946534620F00700854601
:1004E00018B020B5FFF7DCFEBDE820404FF0000655
:1004F0004FF000074FF000084FF0000B21F007010C
:10050000AC46ACE8C009ACE8C009ACE8C009ACE84E
:10051000C0098D467047000010B5FFF733FF001D7E
:1005200010BD00BF5D4C00002DE9FF4F064689B0AD
:100530000878FF2806D0491C2D2805D000244FF04C
:10054000000908E000200CE00124F8E709EB89032A
:10055000491C00EB43090878FF28F7D114B1C9F111
:1005600000008146107800252C46AA4629462D28F1
:1005700001D02B2804D1521C2D2813D000208246F4
:100580008B461078FF280FD04FF0000C0A21521C28
:10059000A5FB017804FB018105FB0C11C5194BEB90
:1005A0000104EEE70120EAE7002108464FF00000D1
:1005B000BAF1000F02D000EB80004008C0F3815870
:1005C000B8F1010F01DD4FF0FF380C9809EB00077F
:1005D00055EA040009D04FF0020917F5FA7F0BDA4B
:1005E0004FEACA70C6E900B012E04FEACA70C6E925
:1005F00000B00DB0BDE8F08FB7F5FA7F0DDDF04823
:100600007844D0E90010C6E9001040EACA70706072
:10061000FFF7BCFEC0F80090EBE7391E02DAC8F124
:10062000000200E0424600DA794206A8FFF7DCFE4D
:1006300006AB93E8070003AB83E8070044F23E00F3
:100640005BEA04010090584604D144F21E012C4696
:100650005D460091210C0904014306D10099240450
:1006600044EA15442D041039009104F07F41014300
:1006700006D10099240244EA15642D02083900913C
:1006800004F07041014306D10099240144EA157435
:100690002D01091F009104F04041014306D100994A
:1006A000A40044EA9574AD00891E009104F0004155
:1006B000084304D100986D196441401E00904246E1
:1006C0006846002FCDE9014503A902DD00F071FE67
:1006D00001E000F046FEBAF1000F04460D4601D0DD
:1006E00084F0004440F2FF7724F00040284303D018
:1006F000C4F30A50B84212D1FFF748FEC0F8009088
:10070000C4F30A50B8420AD1AE487844D0E9001088
:10071000C6E9001004F000410843706069E7C6E9CB
:10072000005466E72DE9FF4F1F464FF0000A4FF0D7
:10073000FF38454691B0D7E90146CDF83CA0FFF718
:1007400021FEC0680168405C1090B96912986D1C68
:100750008847396A814688470028F6D1B9F1FF3FBA
:100760000AD0002E24F4D06411DDB9F12B0F08D08B
:10077000B9F12D0F0BD102E0404615B03AE744F431
:100780008064B96912986D1C8847761E81466005A1
:1007900004A901D52D2000E02B20002E01F1010B32
:1007A0000DF130088DF810003FDDB9F1690F08D068
:1007B000B9F1490F05D0B9F16E0F02D0B9F14E0F62
:1007C0001CD13B4601A8009580E85002DDE91212D9
:1007D0006FF0020005F025FAC11CCED10EE0B96918
:1007E00012986D1C884781461398761E44F4007455
:1007F00005600F98401C002E0F9016DDB9F1300FE8
:10080000EDD0B9F1780F02D0B9F1580F0DD10F9892
:1008100001280AD13B46CDE90054DDE91212001F40
:10082000029605F0FCF9C11CA7D1109989453ED16B
:1008300044F0800406E01399681CAAF1010A44F40C
:1008400000740860B9696D1C1298761E88473028BC
:100850008146F0D02BE01099894505D1200603D4BC
:10086000761E44F0800418E0484603F043FF08B3C6
:10087000761E0DF123018B4544F4007408D2A9F1D2
:1008800030000BF8010B200607D5AAF1010003E0A8
:10089000200602D40AF101008246A00502D5139970
:1008A000681C0860B96912986D1C88478146002E43
:1008B000D1DC53E0002E51DDB9F1650F02D0B9F162
:1008C000450F4BD1A00549D5B9696D1C1298761E0C
:1008D00024F440748847002E81460CDD2B2804D078
:1008E000B9F12D0F07D144F48074B96912986D1CC9
:1008F0008847761E8146E00501D52D2100E02B2199
:1009000008F8011BCDF8008021E0761E0DF13901B9
:10091000884544F400740CD2A9F1300010F0FF00B7
:1009200088F8000002D10099884509D908F101082A
:1009300006E0E00501D5244801E042F20F7082464E
:10094000B96912986D1C8847814613980560002E7E
:1009500004DD484603F0CEFE0028D6D1F96912988E
:100960008847FF2053468BF8000088F800000020DD
:100970000A900B9004AA0CA90AA8FFF7D5FDA005C0
:1009800002D46FF00100F8E614F0240F0AD0E0075B
:1009900014D13868DDE90A12031D3B600068C0E924
:1009A00000120BE00AA9684603F03EFEE00705D1FD
:1009B0003868009A011D3960006802602846DCE64C
:1009C00008570000FE550000F1D8FFFF0446AFF3C2
:1009D00000802046FFF74FFC4FF0013C50F8042BFD
:1009E00051F8043B9A4221D1A2EB0C03934313EA42
:1009F000CC1317D150F8042B51F8043B9A4215D16F
:100A0000A2EB0C03934313EACC130BD150F8042B45
:100A100051F8043B9A4209D1A2EB0C03934313EA29
:100A2000CC13DBD04FF00000704700BFD01A01BAE2
:100A3000B1FA81F101F0180122FA01F0CB40C1F1C5
:100A40002001DBB2C0B2C01A2CFA01F3D11A9143D3
:100A500011EAC311E6D170472DE9FF4F1F464FF051
:100A60003C0987B04FF00042DDE9141001F10108A4
:100A7000DDF858A002EA405003900020049083461D
:100A8000054604460590B969461E08988847AAF1AC
:100A9000010A0290BAF1000F37DD02982E2815D016
:100AA000102100F012FA00282ADB4FF0010B049904
:100AB000014316D0B9F1000F0BDB4A46C11700F015
:100AC000F1F905430C43A9F1040905E00120059063
:100AD00007E008B145F0010501200490059800B930
:100AE000361DB969089808F101088847BBF1000F65
:100AF000AAF1010A0290CDD00999C1F80080C9E796
:100B00000298702808D0502806D0F96908988847BC
:100B1000BBF1000F14D04FE0002002900120BBF188
:100B2000000F049009D0B969089808F101088847B6
:100B3000AAF10109B9F1000F07DCF96908988847A3
:100B40006FF001000BB0BDE8F08F2B2804D02D28EA
:100B50000CD14FF0FF300490B969089808F10108F2
:100B60008847A9F10109B9F1000FE6DD411CE4D085
:100B70000A2100F0AAF90028DFDB029908F1010838
:100B800001EB810100EB41000290B96908988847A8
:100B90000A2100F09AF9099AA9F10109B9F1000FA7
:100BA000C2F8008001DD0028E7DAF9690898884773
:100BB0000499029800FB016655EA040004D004F091
:100BC0004041090002D006E0039898E0A40044EAFE
:100BD0009574AD00B61E04F00041080002D16D19F5
:100BE0006441761E159810F0240F03D04FF00B09C6
:100BF0005C4803E04FF028096FF07D0082465645BF
:100C000007DAAAEB06018944B9F1410F01DD4FF083
:100C1000410901200021A9F1010200F043F9024637
:100C200028400B462140084301D0012100E000216B
:100C3000501E029143F1FF3128402140084301D06A
:100C4000012000E000200299834651EA0B014FD0B9
:100C5000002108464FF00000039900F4400039B12C
:100C600000EB80004FF4400100EBD07001EA60001F
:100C70008015012802DD4FF0FF3000E013D0401C4A
:100C800036D0029860B3BBF1000F0CD14A46012068
:100C9000002100F007F928402140084301D001203D
:100CA00000E00020E0B101204A46002100F0FAF8FF
:100CB000034640190A4661412D1A8C4111D3B9F1FE
:100CC000400F09DD159810F0240F02D0AAF1340668
:100CD00003E0AAF1170600E0761C00254FF000445F
:100CE00006E05B1E42F1FF3220EA030521EA02041E
:100CF000CAF10100B04206DA1B490398084301908B
:100D0000002000900EE0039AC4F3D321E80A0A43BE
:100D1000164940EA44500A433146CDE9000268468C
:100D200003F0DEFC159810F0240F0BD01598C007C7
:100D300015D13868DDE90012031D3B600068C0E989
:100D400000120CE002A8694603F06EFC1598C0077B
:100D500005D13868029A011D39600068026040467A
:100D6000F0E6000002FCFFFF0000F07F0000F03F13
:100D70002DE9FF4F92461D4685B04FF00041DDE959
:100D8000124BDDE914727F1E01EA4B50414940F0DD
:100D9000FF4940EA0108002122F02000492804917F
:100DA00002D04E2828D04CE03BA0012607C88DE891
:100DB0000700A9690698641C88477F1E014606D46F
:100DC0001DF8060018B121F0200181420BD0E9691D
:100DD00006988847032E34D0082E32D06FF00100D9
:100DE00009B0BDE8F08F761C032E01D0082EE0D1AB
:100DF000601CCAF80000DCE7A9690698641C8847F3
:100E00007F1E2AD420F02000412826D1A969069807
:100E1000641C88477F1E20D420F020004E281CD15F
:100E2000A9690698641C88477F1E48F4002849F485
:100E30008009CAF8004001D4282806D0E96906983C
:100E400088475FEACB7012D022E0A9690698641C3B
:100E500088477F1E01D4002803DAE969069888478D
:100E6000BCE72928F1D1641CCAF80040E9E71BF06F
:100E7000240F07D028680499031D2B600068C0E97F
:100E8000001805E02868021D2A600068C0F800907C
:100E90002046A5E70000F07F494E46494E49545987
:100EA00000000000B2F120030AD5C2F1200301FACC
:100EB00002F120FA03F300FA02F041EA030170475D
:100EC00000FA03F14FF0000070473A2800D23038A2
:100ED00020F02002412A01D3A2F13700884201D339
:100EE0004FF0FF30704720F07F4C80EA030023F082
:100EF0007F47ACEB070303F57C5300F0004003F1A0
:100F0000FF032DE980494FEA154B09B44FEA14431A
:100F100025EA0B4E24EA03480FF2042606EB1327BA
:100F200049083E785FEA320203FB0667C7F500070F
:100F300007FB06F64FEA54374FEAD64606F102069B
:100F400007FB066CCCF1005C4FEA1C472CEA074C0F
:100F500007FB06F40CFB06F504EB15464FEA961664
:100F600034BF00204FF000404FEAD13706FB07FCAA
:100F70004FEA1C4C0CFB0BF7D21B03FB0CF761EB8D
:100F800007010CFB0EF7B0EB074072EB17420CFBAE
:100F900008F734BFA2EB0742B2EB074261EB1741FF
:100FA0004FEA0C444FEA910706FB07FC4FEA1C4C42
:100FB0000CFB0BF7B0EBC74072EB573203FB0CF79F
:100FC00034BFA2EBC742B2EBC74261EB57310CFB17
:100FD0000EF7B0EBC70072EB57720CFB08F734BF8B
:100FE000A2EBC702B2EBC70261EB5771039F4FEA56
:100FF000816141EA921104EBCC044FEAD1374FEA08
:10100000826206FB07FC42EA90124FEA80604FEAD8
:101010001C4C0CFB0BF7D21B03FB0CF761EB07011D
:101020000CFB0EF7B0EB074072EB17420CFB08F716
:1010300034BFA2EB0742B2EB074261EB17414FEA24
:101040008C554FEA910704EB9C2406FB07FC4FEA02
:101050001C4C0CFB0BF7B0EBC74072EB573203FB99
:101060000CF734BFA2EBC742B2EBC74261EB57317A
:101070000CFB0EF7B0EBC70072EB57720CFB08F7D6
:1010800034BFA2EBC702B2EBC70261EB577115EB9D
:101090004C254FEA816141EA92114FEA82624FEAA0
:1010A000D13742EA901206FB07FC44F100044FEAF4
:1010B00080604FEA1C4C0CFB0BF7D21B03FB0CF7B8
:1010C00061EB07010CFB0EF7B0EB074072EB174228
:1010D0000CFB08F734BFA2EB0742B2EB074261EB0F
:1010E000174115EB1C154FEA813141EA92414FEA55
:1010F000823242EA90424FEA80304FEA0C7644F165
:10110000000448EA03434EEA0B484FF0000EB2EBEE
:10111000080C71EB030724BF624639464EEB0E0EF6
:101120004FF0000B0018524149414BEB0B0BB2EB57
:10113000080C71EB03077BF1000B24BF62463946B4
:101140004EEB0E0E4FF0000B0018524149414BEB95
:101150000B0BB2EB080C71EB03077BF1000B24BF08
:10116000624639464EEB0E0E51EA020718BF46F0B2
:10117000010616EB0E7655F1000254F1000103D57D
:10118000BDE88901BDE80088BDE88901BDE80048E7
:10119000B619524141EB0101A3F101037047808070
:1011A0007F7E7D7C7B7A79787776767574737271C1
:1011B00071706F6E6E6D6C6C6B6A6A696868676679
:1011C00066656464636362616160605F5F5E5E5D0B
:1011D0005D5C5C5B5B5A5A5959585857575656557F
:1011E00055555454535352525251515050504F4FE1
:1011F0004F4E4E4D4D4D4C4C4C4B4B4B4A4A4A4931
:101200004949484848474747474646464545454473
:10121000444444434343434242424241414100002B
:1012200046EA0646A3F570534FEA164646EA42568A
:101230004FEAD22242EA415210B54FEAD121A3F13E
:10124000010300F017F820F0004000F1010C00F05D
:10125000004701EB00501146BCF5006F40EA070063
:1012600000D210BD02484FF0000140EA070010BD57
:101270000000F07F002B26D4770021D01CB54FEA68
:10128000370703B44FF010004FF010014FF000008B
:101290000FBCBDE810400BF1010BBBF1010F08BF03
:1012A0005FEA170722BF12F1010211F101014FF0AD
:1012B000004143F1000300F0004043EA00007047A2
:1012C000F9D35708DAE746EA064613F1400F4FEA2A
:1012D00016461FDD13F1200FDFBF16430A4600211B
:1012E00020335B42C8D0C3F1200746EA064602FA23
:1012F00007F74FEA164646EA0706C3F1200722FA27
:1013000003F201FA07F721FA03F14FF0000342EA72
:101310000702B1E746EA020646EA06464FEA1646E3
:1013200046EA0106BCBF46EA0646360C4FF000030B
:101330004FF000024FF000019EE72DE9C0489346B0
:1013400030B491E8380007C831EA400C48BF34EAAD
:10135000430C03D5FFF7C7FDFFF78CFFF0BCBDE8DA
:1013600000882DE9C048934630B491E8380007C89A
:1013700031EA400C48BF34EA430C03D5FFF7B3FD14
:10138000FFF74EFFF0BCBDE800882DE9C04893464A
:1013900030B491E8380007C810F0804F08BF13F050
:1013A000804F03D100F019F8FFF764FFF0BCBDE8EF
:1013B00000882DE9C048934630B491E8380007C84A
:1013C00010F0804F08BF13F0804F03D100F005F8F4
:1013D000FFF726FFF0BCBDE8008820F07F4780EAD9
:1013E000030023F07F4C07EB0C03A3F57C5300F0C4
:1013F0000040A3F1FE0392F0000F00F0B38095F0DF
:10140000000F00F077802DE901494FEA11404FEAC3
:10141000144621EA004800FB06FC24EA064708FBC4
:1014200006F607FB08F800FB07F718EB06484CEB3D
:10143000164C4FEA124B18EB07484FEA15464CEB97
:10144000174022EA0B4E0BFB06FC25EA06470EFB73
:1014500006F607FB0EFE0BFB07F71EEB064E4CEBEA
:10146000164C4FF000061EEB074E4CEB174B18EBDB
:101470000B0840F1000018EB0E0B58EB000840F190
:1014800000008F1A4FF000013CBFC943661B14BF18
:10149000B5EB040C00213CBFC943F61B4FEA1744CF
:1014A0004EEA8E0E27EA04454FEA1C4704FB07620A
:1014B0002CEA074C05FB07F70CFB05F604FB0CFCBC
:1014C00016EB074642EB174216EB0C4642EB1C426A
:1014D0001BEB060658EB0202414146EA9E0601D587
:1014E000BDE80189B619524141EB0101A3F10103A5
:1014F000BDE801894FEA14454FEA114724EA054641
:1015000021EA074C05FB07F406FB07F70CFB06F185
:1015100005FB0CFC11EB074144EB17444FEA124763
:1015200011EB0C4144EB1C4422EA074C05FB07F28B
:1015300006FB07F70CFB06F605FB0CFC16EB074653
:1015400042EB174216EB0C4642EB1C456A1854F16D
:10155000000148BF7047B619524141EB0101A3F1A8
:101560000103704795F0000F37D04FEA11424FEA60
:10157000144721EA024624EA074C02FB07F106FB66
:1015800007F70CFB06F402FB0CFC14EB074441EBE1
:1015900017414FEA154714EB0C4441EB1C4125EA77
:1015A000074C02FB07F506FB07F70CFB06F602FBF0
:1015B0000CFC16EB074645EB174516EB0C4645EBC6
:1015C0001C42121951F1000148BF7047B61952412F
:1015D00041EB0101A3F1010370474FEA14454FEAC3
:1015E000114724EA054621EA074C05FB07F106FBF3
:1015F00007F70CFB06F24FF0000605FB0CFC12EBA4
:10160000074241EB174112EB0C4251EB1C4148BF22
:101610007047921841EB0101A3F1010370470000EC
:1016200010B588B004460121022001F067FA0121BB
:10163000880401F073FA07220A21224800F0F8FE1C
:1016400007220B211F4800F0F3FE4FF44060069084
:1016500002208DF81C008DF81D0000208DF81E0062
:1016600001208DF81F0006A9164800F099FE02948B
:101670000020ADF80C00ADF80E00ADF81000ADF88C
:1016800014000C20ADF8120002A90F4802F008FE69
:1016900001210D4802F0A8FD012240F225510A481F
:1016A00002F0D8FD27208DF8040003208DF80500F6
:1016B0008DF8060001208DF8070001A801F02EF931
:1016C00008B010BD00040240004800401CB50121D4
:1016D000202001F013FA4FF48070009001208DF863
:1016E000040000208DF8060003208DF8050002207C
:1016F0008DF807006946044800F052FE4FF48071EF
:10170000014800F0B8FE1CBD0014024010B54FF4B3
:10171000E13003F02BFC4FF4E13002F039FC4FF4E0
:10172000E13000F0ADFE4FF4E13002F029FE4FF45D
:10173000E130FFF775FF4FF47A7002F06BF901F0BA
:10174000C1FA01F031F901F08FFB01F0A9F803F0C3
:1017500041FA01F01DF801F073F803F045FA03F0C7
:101760003FFAA82002F0D0FFFFF7B0FF01F046F8E3
:1017700003F052FC00F0B0FC01200149087010BDDC
:101780002A01002000B58BB00121084601F0B6F90E
:101790000121480601F0C2F909220C213B4800F062
:1017A00047FE09220B21394800F042FE4FF4C05099
:1017B000029002208DF80C0002A9344800F0F0FDE0
:1017C00014208DF8040002208DF8050001208DF80A
:1017D00006008DF8070001A801F0A0F813208DF88D
:1017E000040001208DF805008DF806008DF8070033
:1017F00001A801F093F8264800F082F908A800F04B
:10180000C8FB00208DF826008DF827008DF82800F1
:101810008DF829008DF82A0001208DF82B0000207A
:101820008DF822008DF8230008208DF82400032075
:101830008DF82500ADF8200008A9154800F0A7FA9A
:1018400000208DF81A008DF81B0001208DF81C0077
:101850000020ADF81000ADF81200ADF81400ADF89E
:101860001600ADF8180001208DF81D0004A800F046
:1018700071F901220221064800F080FA0122114686
:10188000034800F07BFA0BB000BD000000000240EE
:101890000064004000B585B002210E4800F0DEF97A
:1018A000A8B102210B4800F0D7F86A460021094888
:1018B00000F0F7FA9DF8080048B99DF8080030B923
:1018C0009DF80A00082802D1684600F02FFE05B0F6
:1018D00000BD00000064004010B50121054800F083
:1018E000BDF930B10121034800F0B6F801200249EA
:1018F000087010BD00640040E400002000B58BB00B
:101900000121022001F0FAF80121880601F006F910
:1019100009220C213B4800F08BFD092206213948A1
:1019200000F086FD4FF48250029002208DF80C00EA
:1019300002A9344800F034FD40208DF80400012055
:101940008DF805008DF806008DF8070001A800F05D
:10195000E5FF3F208DF8040000208DF805000120F0
:101960008DF806008DF8070001A800F0D7FF264883
:1019700000F0C6F808A800F00CFB00208DF8260047
:101980008DF827008DF828008DF829008DF82A00A1
:1019900001208DF82B0000208DF822008DF8230007
:1019A00008208DF8240003208DF82500ADF82000D4
:1019B00008A9154800F0EBF90E208DF81A00002058
:1019C0008DF81B0001208DF81C000020ADF81000E0
:1019D000ADF81200ADF81400ADF81600ADF818001F
:1019E00001208DF81D0004A800F0B4F801220221A6
:1019F000054800F0C3F901221146034800F0BEF982
:101A00000BB000BD000402400068004000B585B086
:101A10000221094800F022F958B10221064800F0DD
:101A20001BF86A460021044800F03BFA684603F0C0
:101A300005F805B000BD00000068004010B50121A8
:101A4000044800F00BF918B10121024800F004F835
:101A500010BD000000680040B1F5007F3AD00FDCF7
:101A6000202928D006DC01291CD004291DD00829F2
:101A700040D11DE0402921D0B1F5807F3AD126E048
:101A8000B1F5004F31D006DCB1F5806F25D0B1F54E
:101A9000006F2FD124E0B1F5803F12D0B1F5003FA7
:101AA00028D111E0154A826025E00822C26022E0B8
:101AB0001022C2601FE0082202611CE010220261B5
:101AC00019E00822426016E01022426013E004226E
:101AD000426010E0042242600DE0042242600AE00D
:101AE000002282610422426005E000228261042219
:101AF000426000E000BF00BF70470000010101002C
:101B000010B504460B48844209D10121480601F072
:101B100015F800214FF0007001F010F808E00121E5
:101B2000880601F00BF800214FF0806001F006F804
:101B300010BD00000064004010B5002106E028221E
:101B400000BF1300A2F10102FBD1491C8142F6D370
:101B500010BD000010B50021837A012202FA03F1C2
:101B60003D4A126842F001023B4B1A603A4A1C326D
:101B700012688A43384B1C331A60027BCAB9364A52
:101B80000C3212688A43344B0C331A604288C38883
:101B900042EA0343304A4032847A42F834300288C1
:101BA000838842EA03432C4A4032847A02EBC4021F
:101BB0005360027B012A19D1274A0C3212680A436A
:101BC000254B0C331A604288038842EA0343224AB9
:101BD0004032847A42F83430C288838842EA034330
:101BE0001D4A4032847A02EBC4025360C27A3AB989
:101BF000194A121D12688A43174B1B1D1A6006E012
:101C0000154A121D12680A43134B1B1D1A600289E4
:101C100032B9114A143212688A430F4B14331A60D6
:101C20000289012A06D10C4A143212680A430A4B6F
:101C300014331A60427B012A06D1074A1C3212680B
:101C40000A43054B1C331A60034A126822F0010252
:101C5000014B1A6010BD00000066004070B50446DC
:101C60000D46002660692840002871D0B5F5807FB8
:101C70005CD010DC082D35D006DC012D20D0022DE3
:101C800024D0042D72D127E0102D31D0202D35D055
:101C9000402D6BD138E0B5F5004F60D009DCB5F5CB
:101CA000007F49D0B5F5806F4CD0B5F5006F5DD1A0
:101CB0004FE0B5F5803F2DD0B5F5003F56D12FE070
:101CC000A0682D4900F01AFA064651E0E0680321A9
:101CD00000F014FA06464BE0E068082100F00EFA26
:101CE000064645E0E068102100F008FA06463FE0AD
:101CF0002069032100F002FA064639E02069082134
:101D000000F0FCF9064633E02069102100F0F6F9F6
:101D100006462DE06068082100F0F0F9064627E04D
:101D20006068102100F0EAF9064621E0A06901216F
:101D300000F0E4F906461BE0A069022100F0DEF99C
:101D4000064615E0A069042100F0D8F906460FE028
:101D50000FE0A069702100F0D1F9064608E0606844
:101D6000042100F0CBF9064602E0FFE7002600BFA1
:101D700000E00026304670BD010101001AB1436940
:101D80000B43436102E043698B434361704730B5C5
:101D9000024600200023146824F002041460146832
:101DA00044F00104146000E05B1C546804F001047A
:101DB0001CB94FF6FF74A342F6D1546804F0010435
:101DC0000CB900206CE08C79012C04D1146844F02B
:101DD0008004146003E0146824F080041460CC795B
:101DE000012C04D1146844F04004146003E014682A
:101DF00024F0400414600C7A012C04D1146844F0DF
:101E00002004146003E0146824F0200414604C7A69
:101E1000012C04D1146844F01004146003E0146829
:101E200024F0100414608C7A012C04D1146844F05E
:101E30000804146003E0146824F008041460CC7AE9
:101E4000012C04D1146844F00404146003E0146805
:101E500024F0040414608C78A407CD7844EA056467
:101E60000D7944EA05444D7944EA05540D886D1E08
:101E70002C43D461146824F001041460002300E0B2
:101E80005B1C546804F001041CB14FF6FF74A342BC
:101E9000F6D1546804F001040CB1002000E00120E8
:101EA00030BD10B500F5D87303EB01131B6803F0C8
:101EB00004031372137A53B900F5D87303EB0113BB
:101EC0001B6840F2FF7404EA5353136009E000F505
:101ED000D87303EB01131B686FF0604404EAD3036B
:101EE000536000F5D87303EB01131B6803F0020382
:101EF000537200F5D87303EB01135B6803F00F0313
:101F0000937200F5D87303EB01135B681B0AD3745B
:101F100000F5D87303EB01139B68D37200F5D873F7
:101F200003EB01139B681C0A147300F5D87303EBD1
:101F300001139B681C0C547300F5D87303EB011359
:101F40009B681B0E937300F5D87303EB0113DB68DA
:101F5000D37300F5D87303EB0113DB681C0A147408
:101F600000F5D87303EB0113DB681C0C547400F507
:101F7000D87303EB0113DB681B0E937421B9C3689C
:101F800043F02003C36003E0036943F020030361CF
:101F900010BD00218171C171017241728172C172E3
:101FA0008170C17003210171022141710121018001
:101FB000704710B502460020936803F08063B3F1C8
:101FC000806F00D110E0936803F00063B3F1006FFD
:101FD00001D1012008E0936803F08053B3F1805FE2
:101FE00001D1022000E00420042874D002F5C0735F
:101FF00003EB00131B6803F0010402F5C07303EB4D
:1020000000131C600B7A7BB94B7A0C8843EA44536B
:1020100002F5C07404EB00142468234302F5C07475
:1020200004EB0014236010E00B7A4C6843EAC4030D
:102030004C7A234302F5C07404EB00142468234354
:1020400002F5C07404EB001423608B7A03F00F03D5
:102050008B7202F5C07303EB00135B6823F00F046F
:1020600002F5C07303EB00135C6002F5C07303EB71
:1020700000135B688C7A234302F5C07404EB0014F0
:1020800063608B7B1C064B7B44EA03440B7B44EA76
:102090000323CC7A234302F5C07404EB0014A3603D
:1020A0008B7C1C064B7C44EA03440B7C44EA0323F0
:1020B000CC7B234302F5C07404EB0014E36002F50B
:1020C000C07303EB00131B6843F0010402F5C073F7
:1020D00003EB00131C6010BD002006490860064990
:1020E000C1F8A80201200349086000200860091D0A
:1020F00008607047A48242420080424202460020AB
:1021000002EA01030BB1012000E00020704700004B
:102110003A490A780978491C384B1970384988546B
:102120000978552903D000211A46117070473349A8
:1021300009780B2900DAF9E73149497850390A2939
:1021400056D2DFE801F0050D151D252D353D454D15
:102150002C492B4A921C13680B6052684A6047E076
:102160002949274A921C13680B6052684A603FE075
:102170002649234A921C13680B6052684A6037E074
:1021800023491F4A921C13680B6052684A602FE073
:1021900020491B4A921C13680B6052684A6027E072
:1021A0001D49174A921C13680B6052684A601FE071
:1021B0001A49134A921C13680B6052684A6017E070
:1021C00017490F4A921C13680B6052684A600FE06F
:1021D00014490B4A921C13680B6052684A6007E06E
:1021E0001149074A921C13680B6052684A6000BF8D
:1021F00000BF0021014A117000BF97E7A500002031
:1022000088070020480000205000002058000020CF
:10221000600000206800002070000020780000208E
:1022200080000020880000209000002010B50820C9
:1022300000F060F8002842D0234800682349086075
:102240004FF08040406A224909684FF47A7202FBDD
:1022500001001D490860084600881C490988401A89
:102260001C4908801C480088642804DA1A48008841
:10227000401C1949088019480088012813D11848C2
:102280000088401C164908801248018814480088BC
:10229000401E144A22F8101011480088082802DB5A
:1022A00000200E4908800B48008840F60201884251
:1022B00005DB012009490880002009490880082021
:1022C00000F012F810BD00001801002014010020D9
:1022D000D80000201C010020120100202401002051
:1022E000100100205C0900200149086070470000CF
:1022F000143C014001460020034A12680A400AB11A
:10230000012000E000207047143C014000212349D7
:102310008279002A3AD00A46126803689A430B462B
:102320001A600A1D126803689A430B1D1A6002792D
:1023300011440A6803681A430A60184A083212688E
:1023400003689A43154B08331A601A1D1268036814
:102350009A43124B0C331A604279102A0ED11A1F7D
:10236000126803681A430D4B08331A601A1D12686D
:1023700003681A43094B0C331A600DE00749427990
:1023800011440A6803681A430A6005E0027911449F
:102390000A6803689A430A6070470000003C0140E5
:1023A000F0B50A4600210023002400BF3DE00125CE
:1023B00005FA01F3156805EA03049C4234D1056867
:1023C0004F000326BE40B543056015794E00B54069
:1023D0000668354305601579012D02D01579022D67
:1023E00016D185684F000326BE40B54385605579F8
:1023F0004E00B540866835438560456801268E40AD
:10240000B5434560456896798E40B6B23543456020
:10241000C5684F000326BE40B543C560D5794E0060
:10242000B540C6683543C560491C1029BFD3F0BD0F
:10243000F0B5002300244D07ED0E02FA05F3CE108F
:1024400000F1200555F826504E07F70E0F26BE4026
:10245000B543CF1000F1200646F82750CE1000F10A
:10246000200555F8265045EA0304CE1000F120055A
:1024700045F82640F0BD4183704701837047000056
:1024800010B588B004460121042000F037FB01217B
:10249000C80400F043FB08220A212248FFF7C8FFC6
:1024A00008220B211F48FFF7C3FF4FF4406006903E
:1024B00002208DF81C008DF81D0000208DF81E00F4
:1024C00001208DF81F0006A91648FFF769FF029446
:1024D0000020ADF80C00ADF80E00ADF81000ADF81E
:1024E00014000C20ADF8120002A90F4801F0D8FE2C
:1024F00001210D4801F078FE012240F225510A48E1
:1025000001F0A8FE34208DF8040003208DF80500AA
:102510008DF8060001208DF8070001A800F0FEF9F3
:1025200008B010BD00080240004C004010B5014644
:1025300000200A68E92A72D00EDC892A55D006DC10
:10254000292A1BD0492A36D0692A33D140E0A92A4A
:1025500058D0C92AF9D163E040F24914131BA242B2
:1025600078D006DCA2F20912002A76D0202AECD11B
:1025700080E0202B70D0402BE7D1A2E04FF08042CA
:10258000526A574B1B684FF47A7404FB0322554B75
:102590001B68D21A544B1A600122544B1A70002047
:1025A00006E001F10B02135C514A1354421CD0B2F5
:1025B0000828F6DB92E0002007E001F10B02135C33
:1025C0004B4A08321354421CD0B20828F5DB85E090
:1025D000002007E001F10B02135C454A103213544E
:1025E000421CD0B20828F5DB78E0002007E001F1BA
:1025F0000B02135C3E4A18321354421CD0B2082816
:10260000F5DB6BE0002007E001F10B02135C384AB8
:1026100020321354421CD0B20828F5DB5EE00CE0F7
:10262000002007E001F10B02135C314A28321354F9
:10263000421CD0B20828F5DB50E0002007E001F191
:102640000B02135C2A4A30321354421CD0B20828C1
:10265000F5DB43E01BE000E026E0002007E001F1AD
:102660000B02135C224A38321354421CD0B20828A1
:10267000F5DB33E0002007E001F10B02135C1C4A9C
:1026800040321354421CD0B20828F5DB26E000206B
:1026900007E001F10B02135C154A48321354421C47
:1026A000D0B20828F5DB19E0002007E001F10B02A9
:1026B000135C0F4A50321354421CD0B20828F5DB89
:1026C0000CE0002007E001F10B02135C084A5832CD
:1026D0001354421CD0B20828F5DB00BF00BF10BD68
:1026E000D800002010000020140000201800002056
:1026F000E408002030B585B005460C46092000EB03
:102700004410009000208DF808008DF80900082082
:102710008DF80A0000208DF80B0000218DF80C10B8
:102720008DF80D108DF80E108DF80F108DF810101B
:102730008DF811108DF812100E4908706946284660
:10274000FFF737FC00200C4908600CE00120FFF780
:10275000F3F909480068401C07490860084600680A
:10276000642800D903E0034800780028EED000BFB9
:1027700005B030BDE4000020E000002004E04FF48C
:10278000C0610248FFF777FEF9E70000001402403D
:102790001CB50121042000F0B1F94FF40070009045
:1027A00001208DF8040000208DF8060003208DF82C
:1027B000050001208DF8070069460E48FFF7F0FD7F
:1027C0004FF400710B48FFF758FE0121072000F07D
:1027D00095F92020009000208DF8040003208DF84A
:1027E000050002208DF8070069460348FFF7D8FD71
:1027F0001CBD000000080240000002401CB5012181
:10280000112000F07BF91C20009000208DF80400BE
:1028100003208DF8050001208DF807006946064861
:10282000FFF7BEFD0120009002208DF807006946E9
:102830000248FFF7B5FD1CBD001002400000024039
:102840001CB50121202000F059F90121022000F0DF
:1028500055F90121084600F051F90121082000F046
:102860004DF90121402000F049F94FF4C06000907B
:1028700001208DF8040000208DF8060003208DF85B
:10288000050001208DF8070069460448FFF788FD20
:102890004FF4C0610148FFF7EEFD1CBD001402407B
:1028A00010B5002403E0641C052001F04BFF642CEC
:1028B000F9DB1248B0F9040000EE100AB8EEC00AC5
:1028C0009FED0F1AC0EE010A9FED0E0A20EE800A5E
:1028D0000D4880ED030A01F09DFF01F0F7FF9FED29
:1028E0000B0A0B4880ED060A9FED080A80ED070AE7
:1028F0009FED060A80ED080A10BD00006000002070
:102900000000004700003443600A0020000000007F
:10291000A40A00204FF4FA610160704770B50021ED
:1029200000230F22C4781CB3174C246804F4E0641D
:10293000C4F5E064C4F30721C1F10404E3B20A4121
:1029400044789C40E1B28478144021430C07210E66
:102950000E4C05786155047804F01F050124AC4045
:1029600005786D11AD0005F1E025C5F8004109E0DD
:10297000047804F01F050124AC40054D067876115B
:1029800045F8264070BD00000CED00E000E400E0DA
:1029900080E100E002490143024A116070470000F3
:1029A0000000FA050CED00E008B54FF4A060FFF759
:1029B000F1FF1C208DF8000001208DF8030000209D
:1029C0008DF8010001208DF802006846FFF7A6FF90
:1029D00032208DF8000001208DF803008DF80100F1
:1029E00002208DF802006846FFF798FF08BD00003E
:1029F000F0B585B007460E4614461D4605F10B009E
:102A000000EB4610009000208DF808008DF80900BA
:102A100008208DF80A00012D04D0022D03D0032DCB
:102A200008D103E006E06420444303E00A2094FB5D
:102A3000F0F400BF00BFE0B28DF80B00210A8DF862
:102A40000C10210C8DF80D10210E8DF80E100021A8
:102A50008DF80F108DF810108DF811108DF81210E0
:102A600000200449087069463846FFF7A2FA05B00D
:102A7000F0BD0000E4000020C0ED0A1AC0ED081A05
:102A800080ED000AC0ED010A80ED021ADFED062A92
:102A9000C0ED032AC0ED042AC0ED092AC0ED052AC5
:102AA000C0ED062A70470000000000000EB50121AD
:102AB000880300F053F80321012000F0E3F8082018
:102AC000009000208DF8040008208DF805000120FA
:102AD0008DF806006846FFF719FC09208DF80800FC
:102AE00000208DF8090002208DF80A0001208DF8E1
:102AF0000B0002A8FFF712FF0EBD000029B1064A25
:102B000012680243044B1A6004E0034A12688243CD
:102B1000014B1A60704700003038024029B1064A64
:102B200012680243044B1A6004E0034A12688243AD
:102B3000014B1A60704700004038024029B1064A34
:102B400012680243044B1A6004E0034A126882438D
:102B5000014B1A60704700002038024029B1064A34
:102B600012680243044B1A6004E0034A126882436D
:102B7000014B1A60704700004438024029B1064AF0
:102B800012680243044B1A6004E0034A126882434D
:102B9000014B1A607047000024380240F0B5002154
:102BA00000220024022500260223324F3F6807F04E
:102BB0000C0121B1042905D0082937D105E02E4F99
:102BC000076036E02D4F076033E02A4F3F1F3F6814
:102BD000C7F38056274F3F1F3F6807F03F036EB192
:102BE000264FB7FBF3F7DFF88CC0ACF1040CDCF830
:102BF00000C0CCF3881C07FB0CF40CE01E4FB7FBA5
:102C0000F3F7DFF870C0ACF1040CDCF800C0CCF3D3
:102C1000881C07FB0CF4174F3F1F3F68C7F30147A1
:102C20007F1C7D00B4FBF5F7076002E0124F0760E0
:102C300000BF00BF0F4F3F6807F0F0010909104FB8
:102C40007A5C0768D74047600A4F3F6807F4E05155
:102C5000890A0B4F7A5C4768D7408760054F3F6809
:102C600007F46041490B064F7A5C4768D740C7605C
:102C7000F0BD0000083802400024F40000127A0081
:102C8000C700002030B500228B071C0F0F2303FA6A
:102C900004F20B4B8C1053F824309343084C8D10E6
:102CA00044F8253023468C1053F824308C07240F29
:102CB00000FA04F42343024C8D1044F8253030BD53
:102CC0000838014010B5532144F61F6000F0C0FBE6
:102CD0004FF44871044800F020FE4FF4E1610248CF
:102CE00000F01DFE10BD0000004001400CB50020AA
:102CF000019000903448006840F480303249086008
:102D000000BF3148006800F4003000900198401C7A
:102D10000190009818B90198B0F5A04FF1D12A4858
:102D2000006800F4003010B10120009001E00020A4
:102D300000900098012846D123484030006840F0B8
:102D400080502149403108602048006840F44040EC
:102D50001E4908601C48083000681B49083108609B
:102D60000846006840F4004008600846006840F4E7
:102D7000A05008601648091F0860081F006840F04E
:102D80008070091F086000BF0F48006800F00070E5
:102D90000028F9D040F205700E4908600A48083052
:102DA000006820F003000849083108600846006800
:102DB00040F00200086000BF03480830006800F0DF
:102DC0000C000828F8D10CBD00380240007000400B
:102DD00008544007003C0240042808D14FF0E0218D
:102DE000096941F004014FF0E022116107E04FF062
:102DF000E021096921F004014FF0E02211617047E0
:102E000010B51548006840F4700013490860134875
:102E1000006840F001001149086000200F490831A6
:102E200008600E4800680E4908400C4908600D48CB
:102E3000091D0860081F006820F48020091F086031
:102E4000002006490C310860FFF750FF4FF000608A
:102E500001498039086010BD88ED00E0003802406B
:102E6000FFFFF6FE1030002410B52DED048BDA487C
:102E700090ED000AB8EEC00AD848D0ED000A30EE56
:102E8000600ADFEDD70A20EE200ABDEEC00AD24864
:102E900080ED000A9FEDD32ADFEDD21AB2EE0E1AB2
:102EA000DFEDD10AB7EE000AD048FFF7E5FD9FED50
:102EB000CD2ADFEDCC1AB2EE0E1ADFEDCB0AB7EE5B
:102EC000000ACB48FFF7D8FD9FEDC62ADFEDC51AF3
:102ED000B3EE041ADFEDC40AB7EE000AC548FFF7E7
:102EE000CBFD9FEDC02ADFEDBF1AB3EE041ADFED74
:102EF000BE0AB7EE000AC048FFF7BEFDB74890ED26
:102F0000000ADFEDBE0A30EEC00ABD4880ED0C0AB3
:102F1000B24890ED000ADFEDBB0A30EEC00AB848B7
:102F200080ED0D0AAD4890ED000ADFEDB70A30EEF6
:102F3000C00AB34880ED0E0AA84890ED000ADFED04
:102F4000B30A30EEC00AAE4880ED0F0A90ED0C0ACD
:102F5000DFEDA30A20EE200A80ED100A90ED0D0AA5
:102F6000DFED9F0A20EE200A80ED110A90ED0E0A97
:102F7000DFED9B0A20EE200A80ED120A90ED0F0A89
:102F8000DFED970A20EE200A80ED130A40F6485143
:102F900001654FF4617181654FF49671C1654FF41D
:102FA000FA7141658D4890ED000ADFED940A30EE2C
:102FB000C00A934880ED180A884890ED000ADFEDBA
:102FC000940A30EEC00A8E4880ED190A834890EDCD
:102FD000000ADFED900A30EEC00A894880ED1A0A37
:102FE0007E4890ED000ADFED8C0A30EEC00A84487E
:102FF00080ED1B0A90ED180ADFED790A20EE200A19
:1030000080ED1C0A90ED190ADFED750A20EE200A0A
:1030100080ED1D0A90ED1A0ADFED710A20EE200AFC
:1030200080ED1E0A90ED1B0ADFED6D0A20EE200AEE
:1030300080ED1F0A40F66E71C0F880104FF4617188
:10304000C0F888104FF4FA71C0F88C10C821C0F88D
:103050008410624890ED000ADFED6D0A30EEC00A80
:10306000674880ED240A5D4890ED000ADFED6B0AA9
:1030700030EEC00A624880ED250A584890ED000AFB
:10308000DFED670A30EEC00A5D4880ED260A53483E
:1030900090ED000ADFED630A30EEC00A584880ED7B
:1030A000270A90ED240ADFED4E0A20EE200A80ED7B
:1030B000280A90ED250ADFED4A0A20EE200A80ED6D
:1030C000290A90ED260ADFED460A20EE200A80ED5F
:1030D0002A0A90ED270ADFED420A20EE200A80ED51
:1030E0002B0A40F60A71C0F8B0104FF46171C0F8B5
:1030F000B8104FF4FA71C0F8BC10C0F8B4103748DB
:1031000090ED000ADFED420A30EEC00A3C4880ED47
:10311000300A324890ED000ADFED400A30EEC00A76
:10312000374880ED310A2D48006802F09BFC41ECE5
:10313000190B9FED3D0B53EC102B02F0D1FA41EC33
:10314000180B02F033F82E49C1F8C800234890ED5F
:10315000000ADFED340A30EEC00A084680ED330A7B
:1031600090ED300ADFED1E0A20EE200A80ED340AD1
:1031700090ED310ADFED1A0A20EE200A80ED350AC3
:1031800090ED320ADFED160A20EE200A80ED360AB5
:1031900090ED330ADFED120A20EE200A80ED370AA7
:1031A00041F63801C0F8E01040F27E41C0F8E81066
:1031B0004FF44871C0F8EC104FF4FA71C0F8E41005
:1031C00001201B490870022008740846007819493C
:1031D0000870BDEC048B10BD2406002020060020E2
:1031E0005A55E9420000FA4300000000240B002079
:1031F000500B00207C0B0020A80B00200000AA42EE
:10320000D40B00200000C84200000C4300007043B3
:103210000000A04200002A4300005C43000002437B
:1032200000001B43000055430000000000605A40AE
:10323000EC0A0020140B0020F0B50C4615460021C6
:103240000022068C4FF6FE773E400684018B028CEE
:103250004FF60C7631407E1C06EA03162E433143AE
:103260004FF6F576324044F0010632430183028482
:10327000F0BDF0B50C461546002100220026078C53
:103280004FF6EF7C07EA0C070784018B028C4FF6A0
:10329000FF7707EA041640F6FF4739404FF6FF77FD
:1032A00007EA033739434FF6FF7707EA0527394323
:1032B0004FF65F773A4046F010073A4301830284A5
:1032C000F0BDF0B50C461546002100220026078C03
:1032D0004FF6FF6C07EA0C070784818B028C4FF6D0
:1032E000FF7707EA04264FF60C7739404FF6FF7751
:1032F00007EA03172F4339434FF2FF573A4046F48A
:1033000080773A4381830284F0BDF0B50C461546C0
:10331000002100220026078C4EF6FF7C07EA0C07EE
:103320000784818B028C4FF6FF7707EA043640F65C
:10333000FF4739404FF6FF7707EA052739434FF635
:10334000FF7707EA0337394345F6FF773A4046F4FB
:1033500080573A4381830284F0BD00004FF08040E3
:10336000008A00F0010000283FD04FF6FE704FF0B9
:10337000804108821E48007800B970471D480068E7
:10338000401C1C4908601C480078401C1A49087001
:103390001A480078401C1949087019480078401CE8
:1033A0001749087017480078401C164908701648DD
:1033B0000078401C1449087014480078401C1349D8
:1033C000087013480078401C1149087011480078B3
:1033D000401C1049087010480078401C0E490870C5
:1033E0000E480068401C0D49086000BFC5E700009A
:1033F0002A010020D80000201C0000201D00002011
:103400001E0000201F0000202000002021000020BE
:10341000220000202400002023000020280000209B
:1034200010B50121034800F076F90121014800F0B0
:103430007AF810BD0004004010B50121034800F0E7
:103440006AF90121014800F06EF810BD0008004043
:1034500030B58BB004460D4601210804FFF77EFB12
:1034600001211020FFF74AFB032206212448FEF722
:10347000DFFF032205212248FEF7DAFF60200990D2
:1034800002208DF8280003208DF8290000208DF8F7
:103490002A0001208DF82B0009A91948FEF780FFAA
:1034A000A8B2ADF818000020ADF81A000794ADF8E6
:1034B000200006A9134800F061FA6020ADF804006E
:1034C0000120ADF806000020ADF8100001A90D485C
:1034D00000F07CF908210B4800F0B6F901A9094871
:1034E00000F0BCF90821074800F00AFA012105485C
:1034F00000F00AF80121034800F018F80BB030BDC5
:10350000001002400040014021B1028842F08002D8
:10351000028004E002884FF67F731A4002807047F1
:10352000CA4302827047CA430282704721B10288AF
:1035300042F00102028004E002884FF6FE731A4056
:103540000280704710B504465548844208D10121D5
:103550000846FFF713FB00210120FFF70FFB9DE05A
:10356000B4F1804F08D101210846FFF7E7FA0021A6
:103570000120FFF7E3FA91E04A48844208D1012193
:103580000220FFF7DBFA00210220FFF7D7FA85E0DF
:103590004548844208D101210420FFF7CFFA0021D9
:1035A0000420FFF7CBFA79E04048844208D101219A
:1035B0000820FFF7C3FA00210820FFF7BFFA6DE0EB
:1035C0003B48844208D101211020FFF7B7FA0021BF
:1035D0001020FFF7B3FA61E03648844208D1012198
:1035E0002020FFF7ABFA00212020FFF7A7FA55E0D3
:1035F0003148844208D101210220FFF7BFFA00219F
:103600000220FFF7BBFA49E02C48844209D101218E
:103610000804FFF7B3FA00214FF48030FFF7AEFA49
:103620003CE02748844209D101214804FFF7A6FA6B
:1036300000214FF40030FFF7A1FA2FE02148844227
:1036400009D101218804FFF799FA00214FF4802065
:10365000FFF794FA22E01C48844208D1012140205F
:10366000FFF76CFA00214020FFF768FA16E01748D0
:10367000844208D101218020FFF760FA00218020D8
:10368000FFF75CFA0AE01248844207D10121801555
:10369000FFF754FA0021A015FFF750FA10BD000003
:1036A000000001400004004000080040000C004001
:1036B00000100040001400400004014000400140A0
:1036C000004401400048014000180040001C004038
:1036D00000200040F0B50C4615461E460021002291
:1036E00000230189028B038C4FF6F8773940214380
:1036F0004FF6FC473A4040F201173A434FF6DD7768
:103700003B404FF6FF7707EA06172F433B43018103
:1037100002830384F0BD30B502460020002300245C
:10372000158A05EA0103958905EA010413B10CB174
:10373000012000E0002030BD70B505460C46208811
:1037400050B92389A28861882846FFF775FDE18872
:10375000284600F0E6F825E0208804280AD12389CD
:10376000A28861882846FFF784FDE188284600F09A
:10377000E1F817E0208808280AD12389A288618807
:103780002846FFF79EFDE188284600F0E0F809E0B2
:103790002389A28861882846FFF7B7FDE18828467B
:1037A00000F0DEF870BD00210180418001218180A0
:1037B0000021C180018170471AB183890B43838145
:1037C00002E083898B4383817047000070B5002439
:1037D00000220023058C4FF6FE7635400584028CCE
:1037E0008388048B4FF68F752C40B51E2C400D88B6
:1037F0002C43751E2A408D892A434D882A43104D3B
:10380000A84202D00F4DA84213D14FF6F7752A40B7
:10381000CD892A434FF6FB752A408D882A434FF6FF
:10382000FF652B404FF6FF552B400D8A2B434D8AE9
:103830002B43838004838D684563028470BD000040
:1038400000000140000401400A460021018B4FF6B0
:10385000F7731940114301837047000070B50024CD
:1038600000220023058C4FF6EF7635400584028C4C
:103870008388048B48F6FF752C404FF6FF452C409B
:103880000D884FF6FF7606EA05252C434FF6DF75C7
:103890002A408D8906EA05152A434D8806EA051552
:1038A0002A43154DA84202D0144DA8421DD14FF60F
:1038B0007F752A40CD894FF6FF7606EA05152A4323
:1038C0004FF6BF752A408D8806EA05152A434FF644
:1038D000FF352B404FF2FF752B400D8A06EA850518
:1038E0002B434D8A06EA85052B43838004838D682C
:1038F0008563028470BD00000000014000040140A7
:103900000A460021018B4FF2FF7319404FF6FF73F7
:1039100003EA0223194301837047416370478163BF
:103920007047028B4FF6F3731A400283028B0A43EF
:1039300002837047028B4FF2FF331A400283028BDF
:103940004FF6FF7303EA01231A4302837047828B09
:103950004FF6F3731A408283828B0A438283704747
:10396000828B4FF2FF331A408283828B4FF6FF73B4
:1039700003EA01231A438283704700000022028871
:10398000184B98420ED0184B98420BD0B0F1804F94
:1039900008D0164B984205D0154B984202D0154BD3
:1039A000984204D14FF68F731A404B881A43124B3A
:1039B000984207D0114B984204D04FF6FF431A406B
:1039C0000B891A4302804B68C3620B880385054B41
:1039D000984202D0044B984201D18B7A038601238E
:1039E0008382704700000140000401400004004051
:1039F00000080040000C004000100040001400408F
:103A00004FF0FF31416000210180018141808172CE
:103A1000704700003EB5044601210846FFF77EF8D6
:103A20004FF08040FFF78EFD0020ADF80800ADF8A4
:103A300002000D4890FBF4F0401E01905320ADF8B9
:103A4000000069464FF08040FFF798FF012188078A
:103A5000FFF766FD012211469007FFF7ADFE012139
:103A60008807FFF763FD3EBD40420F0010B540F2EE
:103A700025510B4800F0C4FB01280DD140F225511F
:103A8000074800F0A2FB064800F074FC05490870E6
:103A900008460078FEF73CFB0348FEF73BFF10BDED
:103AA000004C0040A40000203006002010B540F279
:103AB00025512F4800F0A4FB012857D140F2255191
:103AC0002B4800F082FB2A4800F054FC294908707A
:103AD00029480078052844D2DFE800F003111F29A7
:103AE0003700244800780A2805D123480078401C74
:103AF0002149087002E000201F49087035E01D4888
:103B000000780A2805D11C480078401C1A49087022
:103B100002E000201849087027E01648007817498D
:103B2000087015480078401C134908701DE01148C2
:103B300000780B2805D110480078401C0E49087009
:103B400002E000200C4908700FE00A4800780B28BA
:103B500003D10A4800780A49087000200649087015
:103B600003E000200449087000BF00BF10BD000042
:103B700000500040A8000020AA000020A70000205C
:103B8000A600002010B52DED048B40F22551F2481F
:103B900000F036FB00287DD0EF4800F0EBFBC4B20C
:103BA000EE4800680B2842D2DFE800F00642628C43
:103BB000B4DCFEFDFCFBFA00012C03D10120E74937
:103BC000086034E0022C03D10220E44908602EE0B2
:103BD000032C03D10320E149086028E0042C03D121
:103BE0000420DE49086022E0052C03D10520DB49D2
:103BF00008601CE0062C03D10620D849086016E0B6
:103C0000072C03D10720D549086010E0082C03D108
:103C10000820D24908600AE0092C03D10920CF49C5
:103C2000086004E00A2C02D10A20CC4908608FE128
:103C3000CB48CC4909684454CA480068401CC9496B
:103C4000086008460068062811DB0020C3490860A8
:103C5000C4490860C24800F003FCB0EE408AF0EEB0
:103C6000608A51EC180B01F0A1FABF4908606FE1BE
:103C7000BB48BC4909684454BA480068401CB9496B
:103C800008600846006806281BDB0020B34908606E
:103C9000B44900E05DE10860B14800F0E1FBB0EE3E
:103CA000409AF0EE609A9FEDB10B53EC102B51EC63
:103CB000190B01F0E1FB41EC180B01F077FAAA496E
:103CC000486045E1A648A74909684454A5480068EA
:103CD000401CA449086008460068062819DB00203B
:103CE0009E4908609F4908609D4800F0B9FBB0EE0E
:103CF000409AF0EE609A9FED9D0B53EC102B51EC27
:103D0000190B01F0B9FB41EC180B01F04FFA964981
:103D100088601DE1924893490968445491480068BD
:103D2000401C9049086008460068062819DB0020FE
:103D30008A4908608B490860894800F091FBB0EE21
:103D4000409AF0EE609A9FED890B53EC102B51ECEA
:103D5000190B01F091FB41EC180B01F027FA824995
:103D6000C860F5E07E487F49096844547D48006892
:103D7000401C7C4908600846006806281FDB0020BC
:103D80007649086077490860754800F069FBB0EE35
:103D9000409AF0EE609A9FED750B53EC102B04E007
:103DA000AEE085E05CE033E00AE051EC190B01F095
:103DB00063FB41EC180B01F0F9F96B490861C7E0AE
:103DC000674868490968445466480068401C65496A
:103DD000086008460068062819DB00205F49086073
:103DE000604908605E4800F03BFBB0EE409AF0EEA0
:103DF000609A9FED5E0B53EC102B51EC190B01F008
:103E00003BFB41EC180B01F0D1F9574948619FE0A9
:103E1000534854490968445452480068401C514969
:103E2000086008460068062819DB00204B49086036
:103E30004C4908604A4800F013FBB0EE409AF0EE9F
:103E4000609A9FED4A0B53EC102B51EC190B01F0CB
:103E500013FB41EC180B01F0A9F94349886177E0A5
:103E60003F484049096844543E480068401C3D4969
:103E7000086008460068062819DB002037490860FA
:103E800038490860364800F0EBFAB0EE409AF0EEA0
:103E9000609A9FED360B53EC102B51EC190B01F08F
:103EA000EBFA41EC180B01F081F92F49C8614FE0A2
:103EB0002B482C49096844542A480068401C294969
:103EC000086008460068062819DB002023490860BE
:103ED00024490860224800F0C3FAB0EE409AF0EEA0
:103EE000609A9FED220B53EC102B51EC190B01F053
:103EF000C3FA41EC180B01F059F91B49086227E09D
:103F0000174818490968445416480068401C154968
:103F1000086008460068062819DB00200F49086081
:103F2000104908600E4800F09BFAB0EE409AF0EE9F
:103F3000609A9FED0E0B53EC102B51EC190B01F016
:103F40009BFA41EC180B01F031F90749486200BFB8
:103F500000BFBDEC048B10BD0010014040000020EC
:103F60003600002044000020600700200000000010
:103F70000000244010B540F22551044800F040F9FB
:103F800018B1024800F0F6F9C4B210BD0044004078
:103F900010B588B0044601210846FEF7AFFD0121A7
:103FA0004804FEF7BBFD072202212E48FEF740FA27
:103FB000072203212B48FEF73BFA0C200690022033
:103FC0008DF81C0003208DF81D0000208DF81E00C8
:103FD00001208DF81F0006A92248FEF7E1F94FF4F1
:103FE0008070069001208DF81C0003208DF81D00C4
:103FF00000208DF81E0001208DF81F0006A91A4828
:10400000FEF7CEF902940020ADF80C00ADF80E00DA
:10401000ADF81000ADF814000C20ADF8120002A9A4
:10402000124800F03DF90121104800F0DDF8402170
:104030000E4800F0C1F8012240F225510B4800F073
:1040400009F926208DF8040003208DF805008DF86D
:10405000060001208DF8070001A8FEF75FFC08B0FC
:1040600010BD000000000240001802400044004063
:1040700010B540F225514A4800F0C2F801287DD120
:1040800040F22551464800F0A0F8454800F072F98A
:10409000444908704448007805287BD2DFE800F0E6
:1040A0000311263D4B003F4800780D2805D13E48BE
:1040B0000078401C3C49087002E000203A49087032
:1040C0006CE0384800780A2808D100203749087089
:1040D00035480078401C3449087006E031480078C3
:1040E0000D2802D000203049087057E02D48007894
:1040F0002F492E4A127888542C480078401C2B49AE
:10410000087008460078182806DB0020087026484A
:104110000078401C2449087040E0224800780A28B2
:1041200005D121480078401C1F49087002E000209A
:104130001D49087032E01B4800780D2826D11C4824
:1041400090ED000A1B4880ED020A194890ED010A23
:10415000184880ED030A164890ED020A154880EDD4
:10416000040A134890ED030A124880ED000A104833
:1041700090ED040A0F4880ED010A01E00FE009E02C
:104180000B4890ED050A0B4880ED050A0020064912
:10419000087003E000200449087000BF00BF10BD94
:1041A00000480040C4000020C5000020C6000020D8
:1041B0009C0800208408002001F40072B2F5007F02
:1041C00000D100BFCA430280704710B5002200230F
:1041D00040F66A14A14200D100BF0A1201249440A3
:1041E000A3B2DC43048010BD21B1828942F40052A5
:1041F000828104E082894DF6FF731A408281704704
:1042000070B50246002400230025002040F66A16FF
:10421000B14200D100BFC1F3421501F01F030126D6
:1042200006FA03F3012D02D19689334006E0022DF0
:1042300002D1168A334001E0968A33400C120126DF
:1042400006FA04F41688344013B10CB1012000E0E2
:10425000002070BDF0B50346002400260025002094
:1042600040F66A17B94200D100BF1846C1F34214A4
:1042700001F01F06012707FA06F5012C01D10C30C9
:1042800004E0022C01D1103000E014301AB10768AC
:104290002F43076002E00768AF430760F0BD0000EE
:1042A0002DE9FF4705460E460024A14600BFA04663
:1042B000B08900B100BF2C8A24F44054F088044334
:1042C0002C82AC8941F20C608443B0883189084368
:1042D000718908430443AC81AC8A24F44074B089EA
:1042E0000443AC826846FEF759FC2048854202D060
:1042F0001F48854202D1DDF80C9001E0DDF80890FE
:10430000A88900F4004040B109EBC90000EB091096
:1043100031684900B0FBF1F707E009EBC90000EB99
:10432000091031688900B0FBF1F76420B7FBF0F0A9
:1043300004012009642101FB1078A88900F40040E1
:1043400040B1322000EBC800B0FBF1F000F00700F4
:10435000044308E0322000EB08106421B0FBF1F0C8
:1043600000F00F0004432C81BDE8FF8700100140DE
:104370000014014001468888C0F30800704700001F
:1043800010B588B0044601210420FEF7B7FB0121D7
:104390000820FEF7B3FB01210805FEF7BFFB08224A
:1043A0000C212B48FEF744F8082202212948FEF789
:1043B0003FF84FF48050069002208DF81C008DF8D5
:1043C0001D0000208DF81E0001208DF81F0006A999
:1043D0001F48FDF7E5FF0420069002208DF81C0021
:1043E0008DF81D0000208DF81E0001208DF81F00A3
:1043F00006A91848FDF7D4FF02940020ADF80C0080
:10440000ADF80E00ADF81000ADF814000C20ADF8BA
:10441000120002A91048FFF743FF01210E48FFF7E1
:10442000E3FE012240F225510B48FFF713FF352030
:104430008DF8040003208DF805008DF8060001209A
:104440008DF8070001A8FEF769FA08B010BD00005A
:1044500000080240000C0240005000400000000034
:1044600030B583B00446FBF732FF9FED090B0546DC
:104470008DED000B002221466846FBF751FF2846D0
:10448000FBF72AFF9DED000B03B030BD00000000DC
:10449000000000000000000030B540F2FF742DED78
:1044A000048BF0EE608A18EE901A85B0B0EE408A68
:1044B0009FED2B9B05468DED008B34EA115147D0C3
:1044C00053EC192B51EC180B00F05EFF40D02A463C
:1044D00051EC180B01F073FB41EC180B18EE900A2D
:1044E0008DED008B34EA10501CD053EC192B51EC9D
:1044F000180B00F049FF2BD10220FBF7EDFE00F076
:1045000083F810EE901A18EE900A8DED020B8DEDE7
:10451000008B61F31E0003909DED020B05B0BDEC16
:10452000048B30BD0220FBF7D7FE00F05DF810EEE3
:10453000901A18EE900A8DED020B8DED008B61F351
:104540001E0003909DED020B05B0BDEC048B30BD49
:1045500005B0B0EE480AF0EE680ABDEC048B30BD41
:10456000000000000000000000B52DED048BB0EE4F
:10457000409AF0EE609A83B051EC190B01F0BCF850
:1045800041EC180B18EE100A18EE901A8DED008B06
:10459000002818BF0120084320F00040C0F17F60D0
:1045A00000F1E040C00F14D019EE101A19EE900A75
:1045B0008DED009B002918BF0121084320F0004029
:1045C000C0F17F6000F1E040C00F04BF0120FBF7A5
:1045D00083FEB0EE480A03B0F0EE680ABDEC048B2F
:1045E00000BD0000000000009FED050B10B553EC6E
:1045F000102B51EC100B00F03FFF41EC100B10BDE5
:1046000000000000000000709FED050B10B553EC9A
:10461000102B51EC100B00F02FFF41EC100B10BDD4
:10462000000000000000001030B504462DED048BA2
:1046300081B06A4691ED008B51EC180B00F0B8F98F
:1046400000989FED239B7E300090002821DC53ECE6
:10465000192B51EC180B00F097FE1AD0002140F6F0
:1046600008004FF00000054651EC180B00F09EFDCD
:1046700008EE100A40F6080005EA00014FF00000BD
:10468000B5EEC08AF1EE10FA04BF0220FBF724FE5B
:1046900017E00098FF280EDB0220FBF71DFE53EC0D
:1046A000192B51EC180B00F0E5FF8CBF9FED0A8A27
:1046B0009FED0A8A05E051EC180B00F077FD08EE3B
:1046C000100A84ED008A01B0BDEC048B30BD0000FF
:1046D0000000000000000000000080FF0000807F5C
:1046E00010B5044690ED000B0846FFF7D5FE84EDAB
:1046F000000B10BD30380A2801D20120704700207D
:10470000704700BF7047000010B504466FF004000A
:10471000FEF762FBE11704EB5171C1F3C701074AD1
:1047200011701046007800EB4001C1EBC0104FF64D
:10473000FF7101EAC0000249088010BD2C00002072
:104740002E00002070B504464FF4077094FBF0F083
:10475000C6B24FF4077094FBF0F100FB114085B234
:1047600005E04FF4077000F02FF8701EC6B2002E5F
:10477000F7D115B1284600F027F870BD0146114A5F
:1047800012784A434FF0E0235A6100229A611A4698
:10479000126942F001021A6100BF4FF0E022106975
:1047A00000F001021AB100F48032002AF5D04FF077
:1047B000E022126922F001024FF0E0231A61002288
:1047C0009A6170472C0000200146114A12884A4322
:1047D0004FF0E0235A6100229A611A46126942F0B2
:1047E00001021A6100BF4FF0E022106900F00102DF
:1047F0001AB100F48032002AF5D04FF0E02212699D
:1048000022F001024FF0E0231A6100229A61704702
:104810002E00002000B589B001210420FEF77EF9AA
:1048200001210820FEF76AF94FF44050019003205F
:104830008DF8090002208DF8080001208DF80A008B
:104840008DF80B0001A91F48FDF7AAFD02220C21DB
:104850001C48FDF7EDFD02220D211A48FDF7E8FD89
:1048600006A8FFF7CDF80020ADF818004FF6FF704E
:1048700007900020ADF82000ADF81A0006A91248F4
:10488000FFF77CF800231A4603210F48FEF722FFAA
:1048900003A8FEF788FF0020ADF8140003A90A481A
:1048A000FEF74AFF01210848FEF73AFE01221146B1
:1048B0000548FEF781FF01210348FEF737FE09B0E6
:1048C00000BD0000000C02400008004000B589B0A7
:1048D00001210220FEF742F901210420FEF70EF922
:1048E0004020019003208DF8090002208DF8080077
:1048F00001208DF80A008DF80B0001A92948FDF769
:104900004FFD8020019003208DF8090002208DF8D2
:10491000080001208DF80A008DF80B0001A921483C
:10492000FDF73EFD032206211E48FDF781FD03220F
:1049300007211C48FDF77CFD06A8FFF761F8002061
:10494000ADF818004FF6FF7007900020ADF820007A
:10495000ADF81A0006A91448FFF710F800231A460C
:1049600003211148FEF7B6FE03A8FEF71CFF002046
:10497000ADF8140003A90C48FEF7DEFE01210A4839
:10498000FEF7CEFD012211460748FEF715FF002075
:1049900005492431086001210348FEF7C7FD09B02D
:1049A00000BD0000000802400004014000000000BB
:1049B00010B582B01446CDE900010023009A2360AF
:1049C000194B21F0004098422ADA024328D0B0F572
:1049D000801FA8BF226810DA9FED150B53EC102B37
:1049E0009DED000B51EC100B00F046FDCDE90001F0
:1049F0006FF0350221F0004022600F4B6FF31E5123
:104A000003EB20501044206041F0FF5040F0005074
:104A100001909DED000B00BF02B051EC100B10BDDA
:104A20009DED000BF8E700000000F07F00000000A3
:104A3000000000000000504302FCFFFF10B50446D8
:104A40002068A0F2012030B101281CD0022833D008
:104A500003285FD149E03048FDF75CFF207BE17A15
:104A600040EA01202D490880A17B607B41EA0020BB
:104A700000B22A494880217CE07B41EA002000B254
:104A80002649888046E02448001DFDF743FF207B2F
:104A9000E17A40EA01202149C880A17B607B41EA9C
:104AA000002001B21D480181217CE07B41EA002009
:104AB00001B21A4841812DE017480830FDF72AFF5E
:104AC000207BE17A40EA012014498881A17B607B48
:104AD00041EA002001B21148C181217CE07B41EA1A
:104AE000002001B20D48018214E0207BE17A40EA07
:104AF00001200A494882A17B607B41EA002001B283
:104B000006488182217CE07B41EA002001B2034813
:104B1000C18200BF00BF10BD340600206C09002018
:104B2000A820FFF7F1FDFCF7F1FD42E04FF08040D7
:104B3000406A204909684FF47A7202FB01001E495D
:104B400008601E48007850B1D006406A19490968CB
:104B500002FB01001A490860002018490870194832
:104B600003781948012102681848FDF741FF1548EC
:104B700003781548032102681448FDF739FF012125
:104B80001248FDF7B7FD03211048FDF7B3FD4FF0C4
:104B90008040406A074909684FF47A7202FB0100BD
:104BA00005490968401A0A4908604FF4C870FFF7C0
:104BB000E5FDBBE7D8000020080000201800002019
:104BC00010000020040000200000002000640040CD
:104BD0000C00002010B5FCF7D5FDFCF78FFE10BDD2
:104BE00010B5FDF763FF10BD10B52DED048B9FEDE3
:104BF000C72ADFEDC61AB7EE001ADFEDC50A9FED32
:104C0000C50AC548FDF738FF9FEDC42ADFEDC31A7A
:104C10009FEDBF1ADFEDBE0AB2EE040AC048FDF7F1
:104C20002BFF9FEDC02ADFEDBF1AB0EE001ADFEDBB
:104C3000B80AB3EE090ABC48FDF71EFFBB4890ED69
:104C4000000ABB48D0ED000A30EE200AB74880EDDC
:104C5000000A90ED010AB648D0ED010A30EE200AB4
:104C6000B24880ED010A90ED020AB148D0ED020A87
:104C700030EE200AAD4880ED020AAE4890EDC00A41
:104C8000AD48D0ED000A30EE200AAA4880EDC00AF7
:104C900090EDC10AA848D0ED010A30EE200AA548DF
:104CA00080EDC10A90EDC20AA348D0ED020A30EEB1
:104CB000200AA04880EDC20AA04890ED000AA04852
:104CC000D0ED000A30EE200A9C4880ED000A90EDFD
:104CD000010A9B48D0ED010A30EE200A974880ED8A
:104CE000010A90ED020A9648D0ED020A30EE200A41
:104CF000924880ED020A934890ED000A9248D0ED68
:104D0000000A30EE200A8F4880ED000A90ED010A7B
:104D10008D48D0ED010A30EE200A8A4880ED010A64
:104D200090ED020A8848D0ED020A30EE200A85484C
:104D300080ED020A854890ED000A20EE000AD0EDD1
:104D4000010A90ED011A00EE810A10EE101A0846D1
:104D500000F088FE41EC190BB0EE490AF0EE690A4A
:104D6000FFF702FCB0EE408AF0EE608A51EC180BBF
:104D700000F01CFA764908606C4890ED000A734810
:104D8000D0ED000A30EE600A20EE000A6748D0ED50
:104D9000010A6E4890ED011A70EEC10A634890ED69
:104DA000011A6A48D0ED011A31EE611A00EE810A4B
:104DB00010EE101A084600F055FE41EC190BB0EE4B
:104DC000490AF0EE690AFFF7CFFBB0EE408AF0EE39
:104DD000608A51EC180B00F0E9F95D4988609FED9D
:104DE0005D0A084680ED030A9FED5B0A80ED040A28
:104DF000524890ED000A5948D0ED000A30EE600AA2
:104E000020EE000A4D48D0ED010A544890ED011AF9
:104E100070EEC10A494890ED011A5048D0ED011AD0
:104E200031EE611A00EE810A10EE101A084600F009
:104E300019FE41EC190BB0EE490AF0EE690AFFF7D2
:104E400093FBB0EE408AF0EE608A51EC180B00F054
:104E5000ADF93F4948613B4890ED000A4048D0ED2C
:104E6000000A30EE600A20EE000A3648D0ED010A52
:104E70003B4890ED011A70EEC10A324890ED011ADC
:104E80003748D0ED011A31EE611A00EE810A10EEBA
:104E9000101A084600F0E6FD41EC190BB0EE490A85
:104EA000F0EE690AFFF760FBB0EE408AF0EE608A30
:104EB00051EC180B00F07AF925498861294890EDEA
:104EC000000A20EE000AD0ED010A90ED011A00EE72
:104ED000810A10EE101A084600F0C4FD41EC190BCF
:104EE000B0EE490AF0EE690AFFF73EFBB0EE408AE9
:104EF000F0EE608A51EC180B00F058F91449486044
:104F0000002019490860BDEC048B10BD00007A44F4
:104F1000000000000000A042A00900200000FA44A8
:104F2000CC09002000007A45F8090020F801002093
:104F3000B801002018020020C80100204805002008
:104F40009801002038050020D8010020E801002049
:104F50008409002000589846007028452805002044
:104F600058050020680500208005002010B588B095
:104F7000044601210846FDF7C1FD01211020FDF77F
:104F8000EDFD072209212248FDF752FA07220A21E6
:104F90001F48FDF74DFA4FF4C060069002208DF8CF
:104FA0001C008DF81D0000208DF81E0001208DF8DA
:104FB0001F0006A91648FDF7F3F902940020ADF88A
:104FC0000C00ADF80E00ADF81000ADF814000C2088
:104FD000ADF8120002A90F48FFF762F901210D4850
:104FE000FFF702F9012240F225510A48FFF732F992
:104FF00025208DF8040003208DF805008DF80600AB
:1050000001208DF8070001A8FDF788FC08B010BD4D
:1050100000000240001001401CB501216A20FDF78C
:105020006DFD4FF40460009001208DF80400002015
:105030008DF8060003208DF8050001208DF807008B
:1050400069463A48FDF7ACF94FF404613748FDF77B
:1050500014FA48F22A20009069463548FDF7A0F975
:1050600048F22A213248FDF708FA4EF2A0200090BB
:1050700069463048FDF794F94AF2A0212D48FDF722
:10508000FCF91020009069462B48FDF789F91021A2
:105090002948FDF7F2F90020284908602849C1F89D
:1050A0009402284908602849086026492039086088
:1050B0008120009000208DF8040003208DF8050069
:1050C00001208DF8070069461948FDF769F90120AC
:1050D000009000208DF8040003208DF805000120C9
:1050E0008DF8070069461948FDF75AF9102000901D
:1050F00000208DF8040003208DF8050001208DF8B4
:10510000070069461248FDF74BF90820009000207F
:105110008DF8040003208DF8050001208DF80700AC
:1051200069460448FDF73CF91CBD0000000C024034
:10513000001802400014024000000240BC0243423A
:1051400000004342B48242428402404200080240CE
:105150000004024010B500290AD00878002807D0C2
:1051600005487844FBF738FC002801D0002010BD2A
:105170000248784410BD0000B20B0000AA0B0000EA
:1051800010B500290AD00878002807D005487844CF
:10519000FBF722FC002801D0002010BD0248784413
:1051A00010BD0000A20B00009A0B000021F000428D
:1051B000A2F16052B2F5801F01F0004328BFD2F186
:1051C0007F6C0BD95FEA001C43EAC20242EB5070CD
:1051D00018BF704728BF20F001007047B2F5801F4C
:1051E000BCBF184670474FEA410C1CF5001F02D2A5
:1051F000084600F0ADBC70B500F0E8F90000008989
:10520000FFF7F6BF4FF00040A0F5800070470000A8
:1052100010B591EA030F48BF83F0004300F14083CB
:10522000841A71EB030C05D2121943EB0C03001B1B
:1052300061EB0C01DFF824E14FEA1154A4EB135C9D
:105240001EEA430F18BF9EEA445F73D023EA0E03A1
:10525000DCF1200E21EA045143F4801332D322FA08
:105260000CFE10EB0E0023FA0CFE41EB0E01CCF10C
:10527000200E03FA0EFE10EB0E0051F10001B1F505
:10528000801FCCF1200E32D201EB045112FA0EF243
:10529000BDE8104058BF7047401C38BF5FEA42026B
:1052A00018BF7047002814BF20F0010041F1000131
:1052B0004FEA410313F5001F38BF7047A1F1C04109
:1052C00000F0D2B9012A43EB0302ACF1200CDCF16F
:1052D0001F0E32BF4FF0000E23FA0CF310EB030049
:1052E00041EB0451B4EB115FD0D0A1EB045101F5B7
:1052F000801149085FEA300001EB04510ED350F1F0
:10530000000038BF12FA0EFE08D1BDE81040C9E710
:10531000401C38BF5FEA4202CAD1C3E7BDE8104073
:105320004FEA410313F5001F38BF7047A1F1C04198
:1053300000F09AB99EEA445F08D011EA5E0FBDE81A
:10534000104004BF01F0004100207047BDE810404C
:1053500070B500F03BF900BF64FBBE3E0000E0FF0B
:1053600002494FF0000000F0F8BB00BF0000F87FDA
:10537000491058BFC1F140415B1058BFC3F14043D1
:105380008B42EFF30080704751EA030C17D41CF5F1
:10539000801F58BFBCF5801F00F10680994218BFDE
:1053A000704708BF9042704707D711F5801F58BF5C
:1053B00013F5801F19D499427047894270471CF534
:1053C000801F08D5BCF5801FF7D58B4218BF7047EA
:1053D00008BF824270474FF4001C1CEB410F38BFDE
:1053E0001CEB430F01D28B42704770B500F0EEF812
:1053F000922449004FF000514FF08053FFF7B8BF9F
:1054000051EA030C17D41CF5801F58BFBCF5801F50
:1054100000F10680994218BF704708BF904270475C
:1054200007D711F5801F58BF13F5801F19D4994273
:105430007047894270471CF5801F08D5BCF5801F56
:10544000F7D58B4218BF704708BF824270474FF4B0
:10545000001C1CEB410F38BF1CEB430F01D28B42E9
:10546000704770B500F0B2F8922449004FF0005137
:105470004FF08053FFF77CBFDFF848C170B51CEADE
:10548000111E1EBF1CEA13159EEA0C0F95EA0C0FA5
:1054900000F06F8081EA030423EA4C134EEAD47EC5
:1054A00021EA4C1141F4801143F48013AE44A1FB76
:1054B000024CA0FB0365AEF17F7E361955EB0C055F
:1054C000A1FB034C4CF10003A0FB021C16EB0C06E5
:1054D000654153F10003094218BF46F0010613F479
:1054E000007F0BD14FEA03314FEA0530340341EA24
:1054F000155140EA16506FF003020AE04FEAC3214B
:105500004FEAC520F40241EA555140EA56506FF087
:10551000020202EB2E4201EB025585EACE710AD05F
:105520005FEA440C18BF24F0004450F1000041F140
:10553000000120EAD47040F2FE7C624500D270BDCA
:10554000A84214BF4FF080444FF04044002E08BFE3
:105550000024BEF1806FA8BFA1F1C041BDE870403A
:1055600080F282804FF0000001F1C04101F0004163
:1055700070479EEA0C0F0CEA131518BF95EA0C0F42
:1055800006D04FF0000081EA030E0EF0004170BD1E
:1055900000F01CF88900013E00F007B800F009B8DF
:1055A0004FEA430C5FEA5C5C08D081EA030100F03B
:1055B0005BB84FEA410C5FEA5C5CF6D14FF000004B
:1055C000014970470000FF070000F87F0EF1020E4E
:1055D0002EF0030E5EF8046B364205D4012A43EB2D
:1055E000030515F5001F12D8012841EB010C1CF52D
:1055F000001F0CD80ED14FEAD17C15F5001F0CEB23
:105600004C0C0CF1020C08BF4CEBD37C04E04FF0C7
:10561000080C01E04FEAD37C0CEB4C0526FA05F6AA
:1056200006F00706B6F1040C06D20EEB860CBDE8B8
:1056300070404CF0010C6047DFE80CF0090B0202EF
:105640004FF000414FF00000A1F5002170BD194658
:105650001046012851EB010418BFD4F5001484BF93
:10566000002001F0004170BD0808A0F500114FEACC
:105670003101704753EA010C17D41CF5801F58BF45
:10568000BCF5801F00F106808B4218BF704708BF31
:105690008242704707D713F5801F58BF11F5801F4E
:1056A00019D48B4270479B4270471CF5801F08D568
:1056B000BCF5801FF7D5994218BF704708BF9042CC
:1056C00070474FF4001C1CEB430F38BF1CEB410F1D
:1056D00001D2994270470FB40CBC03BCFFF7C1BEA6
:1056E00091EA030F10B581F000413FF599AD83F0C9
:1056F000004300F0D5B800002DE9F04101F5801C11
:10570000BCF5001FC0F2A9804FEA115C21EA0C51E0
:105710000CF1FD0C41F480115FEA5C0C0CF5C07CCF
:1057200001D34000494130A4890241EA90518702E7
:105730008E0E0A0CA45D04FB04F602FB06F6C6F10D
:105740004046A4FB0662F60D46EA422606FB06F436
:10575000A4FB01235242C3F1404338BF5B1EA6FBAA
:1057600002420024E6FB0324D20B42EA4446A6FB95
:105770000623A1FB02E2A3FB07E4E3FB61426442D0
:10578000C2F1404E38BFAEF1010EA6FB04234FF02C
:105790000002E6FB0E32A2FB03463400E2FB626429
:1057A000A1FB06E6A4FB07E8E4FB61687642C8F1CA
:1057B000405838BFA8F10108A2FB06E4A3FB08E5A6
:1057C000E2FB6854A1FB05E6A7FB04E8E1FB648665
:1057D00018F1200556F10006A809A8F11B08B10927
:1057E00008F03F08B8F10A0F40EA86601CD901EBC7
:1057F0000C51BDE8F08100BFFCF5EEE8E2DDD8D346
:10580000CFCBC7C3C0BDB9B6B4B1AEACA9A7A5A331
:10581000A19F9D9B9A9896959392908F8D8C8B8942
:105820008887868584838281A0FB006800FB01F263
:1058300008EB4208B8EB872807D5341858EB010469
:10584000D5D5401C51F10001D1E7341A78EB0104A1
:10585000CDD4401E71F10001C9E75FEA4C0C5FEA4C
:105860009C5C0DD105D34FF0000001F00041BDE874
:10587000F081BDE8F04170B5FFF7A8FE6DDBFFBE1B
:10588000BDE8F0414FF00000004970470000F87F8C
:1058900010B591EA030F48BF83F000433FF5C0AC59
:1058A000841A71EB030C07D212198CF0004C43EBF5
:1058B0000C03001B61EB0C01DFF8A4E14FEA11546B
:1058C000A4EB135C1EEA430F18BF9EEA445F00F08E
:1058D000B08023EA6E03524221EA0451C3EB6E0307
:1058E00038BF5B1EDCF1200E25D322FA0CFE10EB34
:1058F0000E0043FA0CFE41EB0E01CCF1200E03FA30
:105900000EFE10EB0E0051F10001CCF1200E29D457
:1059100012FA0EF201EB0451BDE8104058BF704777
:10592000401C1CBFB2F1004F704700280CBF491C3F
:1059300020F00100704712EB020E43EB030218BF88
:105940004FF0010E4EEA4202ACF1200CDCF11E0ECB
:1059500054D943FA0CFE10EB0E0051F1FF31CCF19B
:105960001E0ED5D50EF1010E12FA0EFE404141EB8E
:10597000010101EB445C5FEA5C5C10D910EBDE7066
:1059800001EB045138BFBEF1004FBDE8104018BF15
:10599000704700280CBF491C20F00100704730D22E
:1059A0004FEAD42C11F5001124F400641BD0B1FA95
:1059B00081F20B3AA41AA41ED2F12003914030FACE
:1059C00003F31943904001EBCC71002C01EB04511F
:1059D000BDE81040A8BF704701F1C0414FF0000082
:1059E00001F000417047B0FA80F310FA03F100D1E2
:1059F00010BDE41A173C4805C90AE4E701EB04515D
:105A000010BD491001EB0451BDE810404FEA3000D1
:105A100002E04FF0000170474A0008BF0042F8D092
:105A2000B2F5001F28BF704701F000414FF00000A1
:105A300070479EEA445F07D011EA5E0FBDE8104050
:105A400004BF002100207047BDE8104070B5FFF78B
:105A5000BDFD00BF40DFF63E83F0004110467047B9
:105A60000000E0FF43004FEAD30C4FEA3C0C4340F8
:105A70001FBF40070CF1605113F0FE4F70471CF040
:105A8000006F03D100200CF0004170470CF0004380
:105A900043EA507010B540EACC0000F00EF800BFA9
:105AA000000000924FEA0001FFF7DEBD4FF0004119
:105AB0004FF00000A1F5002170470EF1020E2EF00C
:105AC000030E5EF8044B244204D44FEA4102B2F1C3
:105AD0007F4F11D84FEA4003B3F17F4F0CD80ED15E
